{
  "contractName": "Marketplace",
  "abi": [
    {
      "inputs": [
        {
          "internalType": "address",
          "name": "_animal",
          "type": "address"
        }
      ],
      "payable": false,
      "stateMutability": "nonpayable",
      "type": "constructor"
    },
    {
      "anonymous": false,
      "inputs": [
        {
          "indexed": true,
          "internalType": "address",
          "name": "previousOwner",
          "type": "address"
        },
        {
          "indexed": true,
          "internalType": "address",
          "name": "newOwner",
          "type": "address"
        }
      ],
      "name": "OwnershipTransferred",
      "type": "event"
    },
    {
      "constant": true,
      "inputs": [],
      "name": "animal",
      "outputs": [
        {
          "internalType": "contract AnimalToken",
          "name": "",
          "type": "address"
        }
      ],
      "payable": false,
      "stateMutability": "view",
      "type": "function"
    },
    {
      "constant": true,
      "inputs": [
        {
          "internalType": "uint256",
          "name": "",
          "type": "uint256"
        }
      ],
      "name": "animalOwner",
      "outputs": [
        {
          "internalType": "address",
          "name": "",
          "type": "address"
        }
      ],
      "payable": false,
      "stateMutability": "view",
      "type": "function"
    },
    {
      "constant": true,
      "inputs": [],
      "name": "isOwner",
      "outputs": [
        {
          "internalType": "bool",
          "name": "",
          "type": "bool"
        }
      ],
      "payable": false,
      "stateMutability": "view",
      "type": "function"
    },
    {
      "constant": true,
      "inputs": [],
      "name": "owner",
      "outputs": [
        {
          "internalType": "address",
          "name": "",
          "type": "address"
        }
      ],
      "payable": false,
      "stateMutability": "view",
      "type": "function"
    },
    {
      "constant": false,
      "inputs": [],
      "name": "renounceOwnership",
      "outputs": [],
      "payable": false,
      "stateMutability": "nonpayable",
      "type": "function"
    },
    {
      "constant": false,
      "inputs": [
        {
          "internalType": "address",
          "name": "newOwner",
          "type": "address"
        }
      ],
      "name": "transferOwnership",
      "outputs": [],
      "payable": false,
      "stateMutability": "nonpayable",
      "type": "function"
    },
    {
      "constant": false,
      "inputs": [
        {
          "internalType": "uint256",
          "name": "_animalId",
          "type": "uint256"
        }
      ],
      "name": "deposit",
      "outputs": [],
      "payable": false,
      "stateMutability": "nonpayable",
      "type": "function"
    },
    {
      "constant": false,
      "inputs": [
        {
          "internalType": "uint256",
          "name": "_animalId",
          "type": "uint256"
        }
      ],
      "name": "withdraw",
      "outputs": [],
      "payable": false,
      "stateMutability": "nonpayable",
      "type": "function"
    },
    {
      "constant": false,
      "inputs": [
        {
          "internalType": "uint256",
          "name": "_animalId",
          "type": "uint256"
        },
        {
          "internalType": "uint256",
          "name": "_price",
          "type": "uint256"
        }
      ],
      "name": "createSale",
      "outputs": [],
      "payable": false,
      "stateMutability": "nonpayable",
      "type": "function"
    },
    {
      "constant": false,
      "inputs": [
        {
          "internalType": "uint256",
          "name": "_saleId",
          "type": "uint256"
        }
      ],
      "name": "buyAnimal",
      "outputs": [],
      "payable": true,
      "stateMutability": "payable",
      "type": "function"
    },
    {
      "constant": false,
      "inputs": [
        {
          "internalType": "uint256",
          "name": "_animalId",
          "type": "uint256"
        },
        {
          "internalType": "uint256",
          "name": "initialPrice",
          "type": "uint256"
        }
      ],
      "name": "createAuction",
      "outputs": [],
      "payable": false,
      "stateMutability": "nonpayable",
      "type": "function"
    },
    {
      "constant": false,
      "inputs": [
        {
          "internalType": "uint256",
          "name": "_animalId",
          "type": "uint256"
        }
      ],
      "name": "bidOnAuction",
      "outputs": [],
      "payable": true,
      "stateMutability": "payable",
      "type": "function"
    },
    {
      "constant": false,
      "inputs": [
        {
          "internalType": "uint256",
          "name": "_animalId",
          "type": "uint256"
        }
      ],
      "name": "claimAuction",
      "outputs": [],
      "payable": false,
      "stateMutability": "nonpayable",
      "type": "function"
    },
    {
      "constant": false,
      "inputs": [
        {
          "internalType": "uint256",
          "name": "_animal1Id",
          "type": "uint256"
        },
        {
          "internalType": "uint256",
          "name": "_animal2Id",
          "type": "uint256"
        },
        {
          "internalType": "uint256",
          "name": "_animal3Id",
          "type": "uint256"
        }
      ],
      "name": "breeding",
      "outputs": [],
      "payable": false,
      "stateMutability": "nonpayable",
      "type": "function"
    },
    {
      "constant": false,
      "inputs": [
        {
          "internalType": "uint256",
          "name": "_animalId",
          "type": "uint256"
        }
      ],
      "name": "deadAnimal",
      "outputs": [],
      "payable": false,
      "stateMutability": "nonpayable",
      "type": "function"
    },
    {
      "constant": false,
      "inputs": [
        {
          "internalType": "uint256",
          "name": "_animalId",
          "type": "uint256"
        }
      ],
      "name": "registerFighter",
      "outputs": [
        {
          "internalType": "bool",
          "name": "",
          "type": "bool"
        }
      ],
      "payable": false,
      "stateMutability": "nonpayable",
      "type": "function"
    },
    {
      "constant": false,
      "inputs": [
        {
          "internalType": "uint256",
          "name": "_animalId",
          "type": "uint256"
        },
        {
          "internalType": "uint256",
          "name": "reward",
          "type": "uint256"
        }
      ],
      "name": "proposeToFight",
      "outputs": [
        {
          "internalType": "bool",
          "name": "",
          "type": "bool"
        }
      ],
      "payable": false,
      "stateMutability": "nonpayable",
      "type": "function"
    },
    {
      "constant": false,
      "inputs": [
        {
          "internalType": "uint256",
          "name": "challenger",
          "type": "uint256"
        },
        {
          "internalType": "uint256",
          "name": "foe",
          "type": "uint256"
        },
        {
          "internalType": "uint256",
          "name": "value",
          "type": "uint256"
        }
      ],
      "name": "agreeToFight",
      "outputs": [
        {
          "internalType": "bool",
          "name": "",
          "type": "bool"
        }
      ],
      "payable": false,
      "stateMutability": "nonpayable",
      "type": "function"
    }
  ],
  "bytecode": "0x608060405234801561001057600080fd5b50604051612dc7380380612dc78339818101604052602081101561003357600080fd5b8101908080519060200190929190505050336000806101000a81548173ffffffffffffffffffffffffffffffffffffffff021916908373ffffffffffffffffffffffffffffffffffffffff1602179055506000809054906101000a900473ffffffffffffffffffffffffffffffffffffffff1673ffffffffffffffffffffffffffffffffffffffff16600073ffffffffffffffffffffffffffffffffffffffff167f8be0079c531659141344cd1fd0a4f28419497f9722a3daafe3b4186f6b6457e060405160405180910390a380600160006101000a81548173ffffffffffffffffffffffffffffffffffffffff021916908373ffffffffffffffffffffffffffffffffffffffff16021790555050612c76806101516000396000f3fe6080604052600436106101095760003560e01c80638f32d59b11610095578063eada0edb11610064578063eada0edb1461046d578063ec9b6db9146104c4578063f2fde38b146104ff578063f598fee814610550578063f621b6a41461059f57610109565b80638f32d59b146103755780639aafc6c9146103a4578063a6d5f0d9146103df578063b6b55f251461043257610109565b80632e1a7d4d116100dc5780632e1a7d4d1461022a5780636019061b14610265578063715018a6146102aa57806372368bdc146102c15780638da5cb5b1461031e57610109565b80630121683f1461010e5780630da68bfa146101535780631a14e94a146101ce57806326b7aeea146101fc575b600080fd5b34801561011a57600080fd5b506101516004803603604081101561013157600080fd5b810190808035906020019092919080359060200190929190505050610606565b005b34801561015f57600080fd5b5061018c6004803603602081101561017657600080fd5b81019080803590602001909291905050506108b5565b604051808273ffffffffffffffffffffffffffffffffffffffff1673ffffffffffffffffffffffffffffffffffffffff16815260200191505060405180910390f35b6101fa600480360360208110156101e457600080fd5b81019080803590602001909291905050506108e8565b005b6102286004803603602081101561021257600080fd5b8101908080359060200190929190505050610d45565b005b34801561023657600080fd5b506102636004803603602081101561024d57600080fd5b8101908080359060200190929190505050610f54565b005b34801561027157600080fd5b506102a86004803603604081101561028857600080fd5b810190808035906020019092919080359060200190929190505050611156565b005b3480156102b657600080fd5b506102bf611390565b005b3480156102cd57600080fd5b50610304600480360360408110156102e457600080fd5b8101908080359060200190929190803590602001909291905050506114c9565b604051808215151515815260200191505060405180910390f35b34801561032a57600080fd5b50610333611686565b604051808273ffffffffffffffffffffffffffffffffffffffff1673ffffffffffffffffffffffffffffffffffffffff16815260200191505060405180910390f35b34801561038157600080fd5b5061038a6116af565b604051808215151515815260200191505060405180910390f35b3480156103b057600080fd5b506103dd600480360360208110156103c757600080fd5b8101908080359060200190929190505050611706565b005b3480156103eb57600080fd5b506104186004803603602081101561040257600080fd5b8101908080359060200190929190505050611939565b604051808215151515815260200191505060405180910390f35b34801561043e57600080fd5b5061046b6004803603602081101561045557600080fd5b8101908080359060200190929190505050611b94565b005b34801561047957600080fd5b50610482611e2c565b604051808273ffffffffffffffffffffffffffffffffffffffff1673ffffffffffffffffffffffffffffffffffffffff16815260200191505060405180910390f35b3480156104d057600080fd5b506104fd600480360360208110156104e757600080fd5b8101908080359060200190929190505050611e52565b005b34801561050b57600080fd5b5061054e6004803603602081101561052257600080fd5b81019080803573ffffffffffffffffffffffffffffffffffffffff169060200190929190505050611f18565b005b34801561055c57600080fd5b5061059d6004803603606081101561057357600080fd5b81019080803590602001909291908035906020019092919080359060200190929190505050611f9e565b005b3480156105ab57600080fd5b506105ec600480360360608110156105c257600080fd5b81019080803590602001909291908035906020019092919080359060200190929190505050612040565b604051808215151515815260200191505060405180910390f35b6002600083815260200190815260200160002060009054906101000a900460ff161561069a576040517f08c379a00000000000000000000000000000000000000000000000000000000081526004018080602001828103825260118152602001807f616c72656164792061756374696f6e656400000000000000000000000000000081525060200191505060405180910390fd5b3373ffffffffffffffffffffffffffffffffffffffff166005600084815260200190815260200160002060009054906101000a900473ffffffffffffffffffffffffffffffffffffffff1673ffffffffffffffffffffffffffffffffffffffff161461076e576040517f08c379a00000000000000000000000000000000000000000000000000000000081526004018080602001828103825260188152602001807f6e6f74206f776e6572206f66207468697320616e696d616c000000000000000081525060200191505060405180910390fd5b60016002600084815260200190815260200160002060006101000a81548160ff0219169083151502179055506040518060a001604052803373ffffffffffffffffffffffffffffffffffffffff168152602001600073ffffffffffffffffffffffffffffffffffffffff16815260200142815260200182815260200160008152506006600084815260200190815260200160002060008201518160000160006101000a81548173ffffffffffffffffffffffffffffffffffffffff021916908373ffffffffffffffffffffffffffffffffffffffff16021790555060208201518160010160006101000a81548173ffffffffffffffffffffffffffffffffffffffff021916908373ffffffffffffffffffffffffffffffffffffffff1602179055506040820151816002015560608201518160030155608082015181600401559050505050565b60056020528060005260406000206000915054906101000a900473ffffffffffffffffffffffffffffffffffffffff1681565b60006007600083815260200190815260200160002090503373ffffffffffffffffffffffffffffffffffffffff168160020160009054906101000a900473ffffffffffffffffffffffffffffffffffffffff1673ffffffffffffffffffffffffffffffffffffffff1614156109c5576040517f08c379a00000000000000000000000000000000000000000000000000000000081526004018080602001828103825260148152602001807f63616e277420627579206f776e20746f6b656e7300000000000000000000000081525060200191505060405180910390fd5b8060010154341015610a3f576040517f08c379a00000000000000000000000000000000000000000000000000000000081526004018080602001828103825260138152602001807f7072696365206973206e6f7420656e6f7567680000000000000000000000000081525060200191505060405180910390fd5b60008160010154340390506000811115610a9b573373ffffffffffffffffffffffffffffffffffffffff166108fc829081150290604051600060405180830381858888f19350505050158015610a99573d6000803e3d6000fd5b505b8160020160009054906101000a900473ffffffffffffffffffffffffffffffffffffffff1673ffffffffffffffffffffffffffffffffffffffff166108fc83600101549081150290604051600060405180830381858888f19350505050158015610b09573d6000803e3d6000fd5b50600160009054906101000a900473ffffffffffffffffffffffffffffffffffffffff1673ffffffffffffffffffffffffffffffffffffffff1663095ea7b33384600001546040518363ffffffff1660e01b8152600401808373ffffffffffffffffffffffffffffffffffffffff1673ffffffffffffffffffffffffffffffffffffffff16815260200182815260200192505050600060405180830381600087803b158015610bb757600080fd5b505af1158015610bcb573d6000803e3d6000fd5b50505050600160009054906101000a900473ffffffffffffffffffffffffffffffffffffffff1673ffffffffffffffffffffffffffffffffffffffff166323b872dd303385600001546040518463ffffffff1660e01b8152600401808473ffffffffffffffffffffffffffffffffffffffff1673ffffffffffffffffffffffffffffffffffffffff1681526020018373ffffffffffffffffffffffffffffffffffffffff1673ffffffffffffffffffffffffffffffffffffffff1681526020018281526020019350505050600060405180830381600087803b158015610cb057600080fd5b505af1158015610cc4573d6000803e3d6000fd5b50505050600360008360000154815260200190815260200160002060006101000a81549060ff0219169055600760008360000154815260200190815260200160002060008082016000905560018201600090556002820160006101000a81549073ffffffffffffffffffffffffffffffffffffffff02191690555050505050565b6006600082815260200190815260200160002060000160009054906101000a900473ffffffffffffffffffffffffffffffffffffffff1673ffffffffffffffffffffffffffffffffffffffff163373ffffffffffffffffffffffffffffffffffffffff161415610e1d576040517f08c379a000000000000000000000000000000000000000000000000000000000815260040180806020018281038252601b8152602001807f596f7520626964206f6e20796f7572206f776e2061756374696f6e000000000081525060200191505060405180910390fd5b6002600082815260200190815260200160002060009054906101000a900460ff16610eb0576040517f08c379a00000000000000000000000000000000000000000000000000000000081526004018080602001828103825260178152602001807f6e6f7420616e2061756374696f6e656420616e696d616c00000000000000000081525060200191505060405180910390fd5b6006600082815260200190815260200160002060040154341015610f3c576040517f08c379a00000000000000000000000000000000000000000000000000000000081526004018080602001828103825260108152602001807f6e6f7420656e6f756768206d6f6e65790000000000000000000000000000000081525060200191505060405180910390fd5b610f46813461245d565b610f5133823461262c565b50565b3373ffffffffffffffffffffffffffffffffffffffff166005600083815260200190815260200160002060009054906101000a900473ffffffffffffffffffffffffffffffffffffffff1673ffffffffffffffffffffffffffffffffffffffff1614611028576040517f08c379a00000000000000000000000000000000000000000000000000000000081526004018080602001828103825260188152602001807f6e6f74206f776e6572206f66207468697320616e696d616c000000000000000081525060200191505060405180910390fd5b6005600082815260200190815260200160002060006101000a81549073ffffffffffffffffffffffffffffffffffffffff0219169055600160009054906101000a900473ffffffffffffffffffffffffffffffffffffffff1673ffffffffffffffffffffffffffffffffffffffff166323b872dd3033846040518463ffffffff1660e01b8152600401808473ffffffffffffffffffffffffffffffffffffffff1673ffffffffffffffffffffffffffffffffffffffff1681526020018373ffffffffffffffffffffffffffffffffffffffff1673ffffffffffffffffffffffffffffffffffffffff1681526020018281526020019350505050600060405180830381600087803b15801561113b57600080fd5b505af115801561114f573d6000803e3d6000fd5b5050505050565b3373ffffffffffffffffffffffffffffffffffffffff166005600084815260200190815260200160002060009054906101000a900473ffffffffffffffffffffffffffffffffffffffff1673ffffffffffffffffffffffffffffffffffffffff161461122a576040517f08c379a00000000000000000000000000000000000000000000000000000000081526004018080602001828103825260188152602001807f6e6f74206f776e6572206f66207468697320616e696d616c000000000000000081525060200191505060405180910390fd5b6003600083815260200190815260200160002060009054906101000a900460ff16156112be576040517f08c379a000000000000000000000000000000000000000000000000000000000815260040180806020018281038252600f8152602001807f616c7265616479206f6e2073616c65000000000000000000000000000000000081525060200191505060405180910390fd5b60016003600084815260200190815260200160002060006101000a81548160ff02191690831515021790555060405180606001604052808381526020018281526020013373ffffffffffffffffffffffffffffffffffffffff1681525060076000848152602001908152602001600020600082015181600001556020820151816001015560408201518160020160006101000a81548173ffffffffffffffffffffffffffffffffffffffff021916908373ffffffffffffffffffffffffffffffffffffffff1602179055509050505050565b6113986116af565b61140a576040517f08c379a00000000000000000000000000000000000000000000000000000000081526004018080602001828103825260098152602001807f6e6f74206f776e6572000000000000000000000000000000000000000000000081525060200191505060405180910390fd5b600073ffffffffffffffffffffffffffffffffffffffff166000809054906101000a900473ffffffffffffffffffffffffffffffffffffffff1673ffffffffffffffffffffffffffffffffffffffff167f8be0079c531659141344cd1fd0a4f28419497f9722a3daafe3b4186f6b6457e060405160405180910390a360008060006101000a81548173ffffffffffffffffffffffffffffffffffffffff021916908373ffffffffffffffffffffffffffffffffffffffff160217905550565b60003373ffffffffffffffffffffffffffffffffffffffff166005600085815260200190815260200160002060009054906101000a900473ffffffffffffffffffffffffffffffffffffffff1673ffffffffffffffffffffffffffffffffffffffff161461159f576040517f08c379a00000000000000000000000000000000000000000000000000000000081526004018080602001828103825260188152602001807f6e6f74206f776e6572206f66207468697320616e696d616c000000000000000081525060200191505060405180910390fd5b6004600084815260200190815260200160002060009054906101000a900460ff16611632576040517f08c379a000000000000000000000000000000000000000000000000000000000815260040180806020018281038252600d8152602001807f6e6f74206120666967687465720000000000000000000000000000000000000081525060200191505060405180910390fd5b81600860008581526020019081526020016000206001018190555060016008600085815260200190815260200160002060020160006101000a81548160ff0219169083151502179055506001905092915050565b60008060009054906101000a900473ffffffffffffffffffffffffffffffffffffffff16905090565b60008060009054906101000a900473ffffffffffffffffffffffffffffffffffffffff1673ffffffffffffffffffffffffffffffffffffffff163373ffffffffffffffffffffffffffffffffffffffff1614905090565b6002600082815260200190815260200160002060009054906101000a900460ff16611799576040517f08c379a00000000000000000000000000000000000000000000000000000000081526004018080602001828103825260148152602001807f6e6f742061756374696f6e656420616e696d616c00000000000000000000000081525060200191505060405180910390fd5b3373ffffffffffffffffffffffffffffffffffffffff166006600083815260200190815260200160002060010160009054906101000a900473ffffffffffffffffffffffffffffffffffffffff1673ffffffffffffffffffffffffffffffffffffffff1614611870576040517f08c379a000000000000000000000000000000000000000000000000000000000815260040180806020018281038252601b8152602001807f796f7520617265206e6f7420746865206c61737420626964646572000000000081525060200191505060405180910390fd5b426202a3006006600084815260200190815260200160002060020154011115611901576040517f08c379a000000000000000000000000000000000000000000000000000000000815260040180806020018281038252601a8152602001807f3220646179732068617665206e6f74207965742070617373656400000000000081525060200191505060405180910390fd5b60006002600083815260200190815260200160002060006101000a81548160ff021916908315150217905550611936816126a1565b50565b60003373ffffffffffffffffffffffffffffffffffffffff166005600084815260200190815260200160002060009054906101000a900473ffffffffffffffffffffffffffffffffffffffff1673ffffffffffffffffffffffffffffffffffffffff1614611a0f576040517f08c379a00000000000000000000000000000000000000000000000000000000081526004018080602001828103825260188152602001807f6e6f74206f776e6572206f66207468697320616e696d616c000000000000000081525060200191505060405180910390fd5b6004600083815260200190815260200160002060009054906101000a900460ff1615611aa3576040517f08c379a00000000000000000000000000000000000000000000000000000000081526004018080602001828103825260118152602001807f616c72656164792061206669676874657200000000000000000000000000000081525060200191505060405180910390fd5b60016004600084815260200190815260200160002060006101000a81548160ff02191690831515021790555060405180606001604052803373ffffffffffffffffffffffffffffffffffffffff16815260200160008152602001600015158152506008600084815260200190815260200160002060008201518160000160006101000a81548173ffffffffffffffffffffffffffffffffffffffff021916908373ffffffffffffffffffffffffffffffffffffffff1602179055506020820151816001015560408201518160020160006101000a81548160ff02191690831515021790555090505060019050919050565b3373ffffffffffffffffffffffffffffffffffffffff16600160009054906101000a900473ffffffffffffffffffffffffffffffffffffffff1673ffffffffffffffffffffffffffffffffffffffff16636352211e836040518263ffffffff1660e01b81526004018082815260200191505060206040518083038186803b158015611c1e57600080fd5b505afa158015611c32573d6000803e3d6000fd5b505050506040513d6020811015611c4857600080fd5b810190808051906020019092919050505073ffffffffffffffffffffffffffffffffffffffff1614611ce2576040517f08c379a00000000000000000000000000000000000000000000000000000000081526004018080602001828103825260188152602001807f6e6f74206f776e6572206f66207468697320616e696d616c000000000000000081525060200191505060405180910390fd5b336005600083815260200190815260200160002060006101000a81548173ffffffffffffffffffffffffffffffffffffffff021916908373ffffffffffffffffffffffffffffffffffffffff160217905550600160009054906101000a900473ffffffffffffffffffffffffffffffffffffffff1673ffffffffffffffffffffffffffffffffffffffff166323b872dd3330846040518463ffffffff1660e01b8152600401808473ffffffffffffffffffffffffffffffffffffffff1673ffffffffffffffffffffffffffffffffffffffff1681526020018373ffffffffffffffffffffffffffffffffffffffff1673ffffffffffffffffffffffffffffffffffffffff1681526020018281526020019350505050600060405180830381600087803b158015611e1157600080fd5b505af1158015611e25573d6000803e3d6000fd5b5050505050565b600160009054906101000a900473ffffffffffffffffffffffffffffffffffffffff1681565b600160009054906101000a900473ffffffffffffffffffffffffffffffffffffffff1673ffffffffffffffffffffffffffffffffffffffff166342966c68826040518263ffffffff1660e01b815260040180828152602001915050600060405180830381600087803b158015611ec757600080fd5b505af1158015611edb573d6000803e3d6000fd5b505050506005600082815260200190815260200160002060006101000a81549073ffffffffffffffffffffffffffffffffffffffff021916905550565b611f206116af565b611f92576040517f08c379a00000000000000000000000000000000000000000000000000000000081526004018080602001828103825260098152602001807f6e6f74206f776e6572000000000000000000000000000000000000000000000081525060200191505060405180910390fd5b611f9b816127e4565b50565b600160009054906101000a900473ffffffffffffffffffffffffffffffffffffffff1673ffffffffffffffffffffffffffffffffffffffff16630e4d490d8484846040518463ffffffff1660e01b8152600401808481526020018381526020018281526020019350505050600060405180830381600087803b15801561202357600080fd5b505af1158015612037573d6000803e3d6000fd5b50505050505050565b60003373ffffffffffffffffffffffffffffffffffffffff166005600086815260200190815260200160002060009054906101000a900473ffffffffffffffffffffffffffffffffffffffff1673ffffffffffffffffffffffffffffffffffffffff1614612116576040517f08c379a00000000000000000000000000000000000000000000000000000000081526004018080602001828103825260188152602001807f6e6f74206f776e6572206f66207468697320616e696d616c000000000000000081525060200191505060405180910390fd5b6004600084815260200190815260200160002060009054906101000a900460ff166121a9576040517f08c379a000000000000000000000000000000000000000000000000000000000815260040180806020018281038252600d8152602001807f6e6f74206120666967687465720000000000000000000000000000000000000081525060200191505060405180910390fd5b6004600085815260200190815260200160002060009054906101000a900460ff1661223c576040517f08c379a000000000000000000000000000000000000000000000000000000000815260040180806020018281038252600d8152602001807f6e6f74206120666967687465720000000000000000000000000000000000000081525060200191505060405180910390fd5b600860008481526020019081526020016000206001015482146122c7576040517f08c379a00000000000000000000000000000000000000000000000000000000081526004018080602001828103825260108152602001807f6e6f7420726967687420616d6f756e740000000000000000000000000000000081525060200191505060405180910390fd5b6008600084815260200190815260200160002060020160009054906101000a900460ff1661235d576040517f08c379a000000000000000000000000000000000000000000000000000000000815260040180806020018281038252600d8152602001807f6e6f7420617661696c61626c650000000000000000000000000000000000000081525060200191505060405180910390fd5b600060086000858152602001908152602001600020905060006002858161238057fe5b0614156124005761239085611e52565b8060000160009054906101000a900473ffffffffffffffffffffffffffffffffffffffff1673ffffffffffffffffffffffffffffffffffffffff166108fc849081150290604051600060405180830381858888f193505050501580156123fa573d6000803e3d6000fd5b50612451565b61240984611e52565b3373ffffffffffffffffffffffffffffffffffffffff166108fc849081150290604051600060405180830381858888f1935050505015801561244f573d6000803e3d6000fd5b505b60019150509392505050565b612465612be6565b600660008481526020019081526020016000206040518060a00160405290816000820160009054906101000a900473ffffffffffffffffffffffffffffffffffffffff1673ffffffffffffffffffffffffffffffffffffffff1673ffffffffffffffffffffffffffffffffffffffff1681526020016001820160009054906101000a900473ffffffffffffffffffffffffffffffffffffffff1673ffffffffffffffffffffffffffffffffffffffff1673ffffffffffffffffffffffffffffffffffffffff16815260200160028201548152602001600382015481526020016004820154815250509050600073ffffffffffffffffffffffffffffffffffffffff16816020015173ffffffffffffffffffffffffffffffffffffffff16146125db57806020015173ffffffffffffffffffffffffffffffffffffffff166108fc82608001519081150290604051600060405180830381858888f193505050501580156125d5573d6000803e3d6000fd5b50612627565b806000015173ffffffffffffffffffffffffffffffffffffffff166108fc839081150290604051600060405180830381858888f19350505050158015612625573d6000803e3d6000fd5b505b505050565b826006600084815260200190815260200160002060010160006101000a81548173ffffffffffffffffffffffffffffffffffffffff021916908373ffffffffffffffffffffffffffffffffffffffff160217905550806006600084815260200190815260200160002060040181905550505050565b6000600660008381526020019081526020016000209050600073ffffffffffffffffffffffffffffffffffffffff168160010160009054906101000a900473ffffffffffffffffffffffffffffffffffffffff1673ffffffffffffffffffffffffffffffffffffffff16146127e0576127638160000160009054906101000a900473ffffffffffffffffffffffffffffffffffffffff168260010160009054906101000a900473ffffffffffffffffffffffffffffffffffffffff1684612945565b60066000838152602001908152602001600020600080820160006101000a81549073ffffffffffffffffffffffffffffffffffffffff02191690556001820160006101000a81549073ffffffffffffffffffffffffffffffffffffffff021916905560028201600090556003820160009055600482016000905550505b5050565b600073ffffffffffffffffffffffffffffffffffffffff168173ffffffffffffffffffffffffffffffffffffffff161415612887576040517f08c379a00000000000000000000000000000000000000000000000000000000081526004018080602001828103825260098152602001807f6e6f74206f776e6572000000000000000000000000000000000000000000000081525060200191505060405180910390fd5b8073ffffffffffffffffffffffffffffffffffffffff166000809054906101000a900473ffffffffffffffffffffffffffffffffffffffff1673ffffffffffffffffffffffffffffffffffffffff167f8be0079c531659141344cd1fd0a4f28419497f9722a3daafe3b4186f6b6457e060405160405180910390a3806000806101000a81548173ffffffffffffffffffffffffffffffffffffffff021916908373ffffffffffffffffffffffffffffffffffffffff16021790555050565b6002600082815260200190815260200160002060009054906101000a900460ff16156129d9576040517f08c379a00000000000000000000000000000000000000000000000000000000081526004018080602001828103825260108152602001807f61756374696f6e656420616e696d616c0000000000000000000000000000000081525060200191505060405180910390fd5b600160009054906101000a900473ffffffffffffffffffffffffffffffffffffffff1673ffffffffffffffffffffffffffffffffffffffff1663095ea7b383836040518363ffffffff1660e01b8152600401808373ffffffffffffffffffffffffffffffffffffffff1673ffffffffffffffffffffffffffffffffffffffff16815260200182815260200192505050600060405180830381600087803b158015612a8257600080fd5b505af1158015612a96573d6000803e3d6000fd5b50505050600160009054906101000a900473ffffffffffffffffffffffffffffffffffffffff1673ffffffffffffffffffffffffffffffffffffffff166323b872dd8484846040518463ffffffff1660e01b8152600401808473ffffffffffffffffffffffffffffffffffffffff1673ffffffffffffffffffffffffffffffffffffffff1681526020018373ffffffffffffffffffffffffffffffffffffffff1673ffffffffffffffffffffffffffffffffffffffff1681526020018281526020019350505050600060405180830381600087803b158015612b7757600080fd5b505af1158015612b8b573d6000803e3d6000fd5b50505050816005600083815260200190815260200160002060006101000a81548173ffffffffffffffffffffffffffffffffffffffff021916908373ffffffffffffffffffffffffffffffffffffffff160217905550505050565b6040518060a00160405280600073ffffffffffffffffffffffffffffffffffffffff168152602001600073ffffffffffffffffffffffffffffffffffffffff168152602001600081526020016000815260200160008152509056fea265627a7a723158203c936546a0ea9d40deacebc79e8d798eb05a868f7e672152d6671399645d28cd64736f6c634300050c0032",
  "source": "pragma solidity >=0.4.21 <0.6.0;\n\nimport \"./AnimalToken.sol\";\n\n/// @title Escrow contract\ncontract Marketplace is Ownable {\n\n    AnimalToken public animal;\n\n    constructor(address _animal) public {\n        animal = AnimalToken(_animal);\n    }\n\n    struct Sale {\n        uint animalId;\n        uint price;\n        address payable owner;\n    }\n\n    struct Auction {\n        address payable seller;\n        address payable lastBidder;\n        uint startDate;\n        uint initialPrice;\n        uint bestOffer;\n    }\n\n    struct Fighter {\n        address payable owner;\n        uint reward;\n        bool canFight;\n    }\n\n    mapping (uint => bool) private auctionedAnimals; // AnimalId => True\n    mapping (uint => bool) private forSaleAnimals; // AnimalId => True\n    mapping (uint => bool) private fightersAnimals; // AnimalId => True\n\n    mapping (uint => address) public animalOwner; // AnimaldId => OwnerAddress\n\n    mapping (uint => Auction) private auctions;\n    mapping (uint => Sale) private sales;\n    mapping (uint => Fighter) private fighters;\n\n\n    // Listing Animal in the Marketplace\n    function deposit(uint _animalId) public {\n        require(animal.ownerOf(_animalId) == msg.sender, \"not owner of this animal\");\n        animalOwner[_animalId] = msg.sender;\n        animal.transferFrom(msg.sender, address(this), _animalId);\n    }\n\n    // Remove Animal from listing\n    function withdraw(uint _animalId) public {\n        require(animalOwner[_animalId] == msg.sender, \"not owner of this animal\");\n        delete animalOwner[_animalId];\n        animal.transferFrom(address(this), msg.sender, _animalId);\n    }\n    \n    // ----------------------------------------------------------------------------------------------------------------------------------------------------\n    // SALE\n    // Create Sale of an animal\n    function createSale(uint _animalId, uint _price) public {\n        require(animalOwner[_animalId] == msg.sender, \"not owner of this animal\");\n        require(!forSaleAnimals[_animalId], \"already on sale\");\n        forSaleAnimals[_animalId] = true;\n        sales[_animalId] = Sale(_animalId, _price, msg.sender);\n    }\n\n    // Buy animal\n    function buyAnimal(uint _saleId) public payable {\n        Sale storage s = sales[_saleId];\n\n        // Avoid the owner buying his own tokens\n        require(s.owner != msg.sender, \"can't buy own tokens\");\n        require(msg.value >= s.price, \"price is not enough\");\n\n        uint refund = msg.value - s.price;\n        if(refund > 0)\n            msg.sender.transfer(refund);\n\n        s.owner.transfer(s.price);\n\n        // Transfer the token (approve the buyer then allow him to transfer the token)\n        animal.approve(msg.sender, s.animalId);\n        animal.transferFrom(address(this), msg.sender, s.animalId);\n\n        // Delete sale\n        delete forSaleAnimals[s.animalId];\n        delete sales[s.animalId];\n    }\n    \n    // ----------------------------------------------------------------------------------------------------------------------------------------------------\n    // AUCTION\n    // Create Auction of an animal\n    function createAuction(uint _animalId, uint initialPrice) public {\n        require(!auctionedAnimals[_animalId], \"already auctioned\");\n        require(animalOwner[_animalId] == msg.sender, \"not owner of this animal\");\n        auctionedAnimals[_animalId] = true;\n        auctions[_animalId] = Auction(msg.sender, address(0), now, initialPrice, 0);\n    }\n\n    // Bid on an Auction, need to do a better offer\n    function bidOnAuction(uint _animalId) public payable {\n        require(msg.sender != auctions[_animalId].seller, \"You bid on your own auction\");\n        require(auctionedAnimals[_animalId], \"not an auctioned animal\");\n        require(msg.value >= auctions[_animalId].bestOffer, \"not enough money\");\n        _transferBid(_animalId, msg.value);\n        _updateAuction(msg.sender, _animalId, msg.value);\n    }\n\n    // Transfer Bid\n    function _transferBid(uint _animalId, uint value) private {\n        Auction memory auction = auctions[_animalId];\n        if (auction.lastBidder != address(0)) {\n            // Give back money to lastBidder\n            auction.lastBidder.transfer(auction.bestOffer);\n        } else {\n            // Transfer money to the seller (initially)\n            auction.seller.transfer(value);\n        }\n    }\n\n    // Update Auction with new bidder\n    function _updateAuction(address payable newBidder, uint _animalId, uint value) private {\n        auctions[_animalId].lastBidder = newBidder;\n        auctions[_animalId].bestOffer = value;\n    }\n\n    // Allow last bidder to claim for the animal after 2 days\n    function claimAuction(uint _animalId) public {\n        require(auctionedAnimals[_animalId], \"not auctioned animal\");\n        require(auctions[_animalId].lastBidder == msg.sender, \"you are not the last bidder\");\n        require(auctions[_animalId].startDate + 2 days <= now, \"2 days have not yet passed\");\n        auctionedAnimals[_animalId] = false;\n        _processRetrieveAuction(_animalId);\n    }\n\n    // Transfer animal to last bidder\n    function _processRetrieveAuction(uint _animalId) private {\n        Auction storage auction = auctions[_animalId];\n        if (auction.lastBidder != address(0)) {\n            _transferAnimal(auction.seller, auction.lastBidder, _animalId);\n            delete auctions[_animalId];\n        }\n    }\n\n    // Auctioned Animal are locked\n    function _transferAnimal(address sender, address receiver, uint _animalId) private {\n        require(!auctionedAnimals[_animalId], \"auctioned animal\");\n        animal.approve(receiver, _animalId);\n        animal.transferFrom(sender, receiver, _animalId);\n        animalOwner[_animalId] = receiver;\n    }\n\n    // ----------------------------------------------------------------------------------------------------------------------------------------------------\n    // BREEDING\n    // Breeding two animals to create a new one\n    function breeding(uint _animal1Id, uint _animal2Id, uint _animal3Id) public {\n        animal.mintNewToken(_animal1Id, _animal2Id, _animal3Id);\n    }\n\n    function deadAnimal(uint _animalId) public {\n        animal.burn(_animalId);\n        delete animalOwner[_animalId];\n    }\n\n    // ----------------------------------------------------------------------------------------------------------------------------------------------------\n    // FIGHT\n    function registerFighter(uint _animalId) public returns (bool) {\n        require(animalOwner[_animalId] == msg.sender, \"not owner of this animal\");\n        require(!fightersAnimals[_animalId], \"already a fighter\");\n        fightersAnimals[_animalId] = true;\n        fighters[_animalId] = Fighter(msg.sender, 0, false);\n        return true;\n    }\n\n    function proposeToFight(uint _animalId, uint reward) public returns (bool) {\n        require(animalOwner[_animalId] == msg.sender, \"not owner of this animal\");\n        require(fightersAnimals[_animalId], \"not a fighter\");\n        fighters[_animalId].reward = reward;\n        fighters[_animalId].canFight = true;\n        return true;\n    }\n\n    function agreeToFight(uint challenger, uint foe, uint value) public\n    returns (bool) {\n        require(animalOwner[challenger] == msg.sender, \"not owner of this animal\");\n        require(fightersAnimals[foe], \"not a fighter\");\n        require(fightersAnimals[challenger], \"not a fighter\");\n        require(value == fighters[foe].reward, \"not right amount\");\n        require(fighters[foe].canFight, \"not available\");\n        Fighter storage fighter = fighters[foe];\n        if (foe % 2 == 0) {\n            deadAnimal(challenger);\n            fighter.owner.transfer(value);\n        } else {\n            deadAnimal(foe);\n            msg.sender.transfer(value);\n        }\n        return true;\n    }\n\n\n}\n",
  "sourcePath": "/home/nicolas/Documents/ESILV/MONNAIES_NUMERIQUES/master/contracts/Marketplace.sol",
  "compiler": {
    "name": "solc",
    "version": "0.5.12+commit.7709ece9.Emscripten.clang"
  },
  "schemaVersion": "3.0.19",
  "updatedAt": "2019-12-01T21:23:11.461Z",
  "devdoc": {
    "methods": {},
    "title": "Escrow contract"
  },
  "userdoc": {
    "methods": {}
  }
}